{
  "_format": "hh-sol-artifact-1",
  "contractName": "Token",
  "sourceName": "contracts/Token.sol",
  "abi": [
    {
      "anonymous": false,
      "inputs": [
        {
          "indexed": true,
          "internalType": "address",
          "name": "sender",
          "type": "address"
        },
        {
          "indexed": true,
          "internalType": "address",
          "name": "receiver",
          "type": "address"
        },
        {
          "indexed": false,
          "internalType": "uint256",
          "name": "amount",
          "type": "uint256"
        },
        {
          "indexed": false,
          "internalType": "uint256",
          "name": "timestamp",
          "type": "uint256"
        }
      ],
      "name": "Transfer",
      "type": "event"
    },
    {
      "inputs": [
        {
          "internalType": "string",
          "name": "_data",
          "type": "string"
        }
      ],
      "name": "addFlow",
      "outputs": [],
      "stateMutability": "nonpayable",
      "type": "function"
    },
    {
      "inputs": [],
      "name": "getAllTransactions",
      "outputs": [
        {
          "components": [
            {
              "internalType": "address",
              "name": "sender",
              "type": "address"
            },
            {
              "internalType": "address",
              "name": "receiver",
              "type": "address"
            },
            {
              "internalType": "uint256",
              "name": "amount",
              "type": "uint256"
            },
            {
              "internalType": "uint256",
              "name": "timestamp",
              "type": "uint256"
            },
            {
              "internalType": "uint256",
              "name": "projectId",
              "type": "uint256"
            },
            {
              "internalType": "string",
              "name": "nodeId",
              "type": "string"
            }
          ],
          "internalType": "struct Transactions.TransferStruct[]",
          "name": "",
          "type": "tuple[]"
        }
      ],
      "stateMutability": "view",
      "type": "function"
    },
    {
      "inputs": [
        {
          "internalType": "address",
          "name": "addr",
          "type": "address"
        }
      ],
      "name": "getBalance",
      "outputs": [
        {
          "internalType": "uint256",
          "name": "",
          "type": "uint256"
        }
      ],
      "stateMutability": "view",
      "type": "function"
    },
    {
      "inputs": [
        {
          "internalType": "uint256",
          "name": "_id",
          "type": "uint256"
        }
      ],
      "name": "getFlows",
      "outputs": [
        {
          "internalType": "string",
          "name": "",
          "type": "string"
        }
      ],
      "stateMutability": "view",
      "type": "function"
    },
    {
      "inputs": [],
      "name": "getOwner",
      "outputs": [
        {
          "internalType": "address",
          "name": "",
          "type": "address"
        }
      ],
      "stateMutability": "view",
      "type": "function"
    },
    {
      "inputs": [
        {
          "internalType": "uint256",
          "name": "_projectId",
          "type": "uint256"
        },
        {
          "internalType": "string",
          "name": "_nodeId",
          "type": "string"
        }
      ],
      "name": "getPoolTransactions",
      "outputs": [
        {
          "components": [
            {
              "internalType": "address",
              "name": "sender",
              "type": "address"
            },
            {
              "internalType": "address",
              "name": "receiver",
              "type": "address"
            },
            {
              "internalType": "uint256",
              "name": "amount",
              "type": "uint256"
            },
            {
              "internalType": "uint256",
              "name": "timestamp",
              "type": "uint256"
            },
            {
              "internalType": "uint256",
              "name": "projectId",
              "type": "uint256"
            },
            {
              "internalType": "string",
              "name": "nodeId",
              "type": "string"
            }
          ],
          "internalType": "struct Transactions.TransferStruct[]",
          "name": "",
          "type": "tuple[]"
        }
      ],
      "stateMutability": "view",
      "type": "function"
    },
    {
      "inputs": [],
      "name": "getTransactionsCount",
      "outputs": [
        {
          "internalType": "uint256",
          "name": "",
          "type": "uint256"
        }
      ],
      "stateMutability": "view",
      "type": "function"
    },
    {
      "inputs": [],
      "name": "getTransactionsCountX",
      "outputs": [
        {
          "internalType": "uint256",
          "name": "",
          "type": "uint256"
        }
      ],
      "stateMutability": "view",
      "type": "function"
    },
    {
      "inputs": [
        {
          "internalType": "uint256",
          "name": "",
          "type": "uint256"
        }
      ],
      "name": "mapFlow",
      "outputs": [
        {
          "internalType": "string",
          "name": "",
          "type": "string"
        }
      ],
      "stateMutability": "view",
      "type": "function"
    },
    {
      "inputs": [
        {
          "internalType": "uint256",
          "name": "",
          "type": "uint256"
        },
        {
          "internalType": "string",
          "name": "",
          "type": "string"
        },
        {
          "internalType": "uint256",
          "name": "",
          "type": "uint256"
        }
      ],
      "name": "nested",
      "outputs": [
        {
          "internalType": "address",
          "name": "sender",
          "type": "address"
        },
        {
          "internalType": "address",
          "name": "receiver",
          "type": "address"
        },
        {
          "internalType": "uint256",
          "name": "amount",
          "type": "uint256"
        },
        {
          "internalType": "uint256",
          "name": "timestamp",
          "type": "uint256"
        },
        {
          "internalType": "uint256",
          "name": "projectId",
          "type": "uint256"
        },
        {
          "internalType": "string",
          "name": "nodeId",
          "type": "string"
        }
      ],
      "stateMutability": "view",
      "type": "function"
    },
    {
      "inputs": [
        {
          "internalType": "address payable",
          "name": "receiver",
          "type": "address"
        },
        {
          "internalType": "uint256",
          "name": "amount",
          "type": "uint256"
        },
        {
          "internalType": "uint256",
          "name": "_projectId",
          "type": "uint256"
        },
        {
          "internalType": "string",
          "name": "_nodeId",
          "type": "string"
        }
      ],
      "name": "sendMoney",
      "outputs": [
        {
          "internalType": "bool",
          "name": "success",
          "type": "bool"
        }
      ],
      "stateMutability": "nonpayable",
      "type": "function"
    },
    {
      "inputs": [
        {
          "internalType": "uint256",
          "name": "_id",
          "type": "uint256"
        },
        {
          "internalType": "string",
          "name": "_data",
          "type": "string"
        }
      ],
      "name": "updateFlow",
      "outputs": [],
      "stateMutability": "nonpayable",
      "type": "function"
    }
  ],
  "bytecode": "0x60806040526040518060400160405280601181526020017f3c73766720786d653e6d6964646c65273e000000000000000000000000000000815250600790805190602001906200005192919062000101565b503480156200005f57600080fd5b50336000806101000a81548173ffffffffffffffffffffffffffffffffffffffff021916908373ffffffffffffffffffffffffffffffffffffffff1602179055503373ffffffffffffffffffffffffffffffffffffffff1631600260003273ffffffffffffffffffffffffffffffffffffffff1673ffffffffffffffffffffffffffffffffffffffff1681526020019081526020016000208190555062000216565b8280546200010f90620001b1565b90600052602060002090601f0160209004810192826200013357600085556200017f565b82601f106200014e57805160ff19168380011785556200017f565b828001600101855582156200017f579182015b828111156200017e57825182559160200191906001019062000161565b5b5090506200018e919062000192565b5090565b5b80821115620001ad57600081600090555060010162000193565b5090565b60006002820490506001821680620001ca57607f821691505b60208210811415620001e157620001e0620001e7565b5b50919050565b7f4e487b7100000000000000000000000000000000000000000000000000000000600052602260045260246000fd5b611b6d80620002266000396000f3fe608060405234801561001057600080fd5b50600436106100b45760003560e01c80638fa8e392116100715780638fa8e39214610194578063911c91a9146101c4578063b2547a6d146101e0578063bd0cb865146101fe578063e639a7301461022e578063f8b2cb4f1461025e576100b4565b806327506f53146100b95780633061a8e3146100d75780635711eb661461010c578063578cb8f91461013c578063752fc31f1461015a578063893d20e814610176575b600080fd5b6100c161028e565b6040516100ce919061173e565b60405180910390f35b6100f160048036038101906100ec919061143d565b610449565b604051610103969594939291906116d6565b60405180910390f35b610126600480360381019061012191906113e9565b61058d565b604051610133919061173e565b60405180910390f35b610144610778565b604051610151919061179d565b60405180910390f35b610174600480360381019061016f91906113e9565b610782565b005b61017e6107ae565b60405161018b91906116bb565b60405180910390f35b6101ae60048036038101906101a99190611304565b6107d7565b6040516101bb9190611760565b60405180910390f35b6101de60048036038101906101d9919061137f565b610cf4565b005b6101e8610d3b565b6040516101f5919061179d565b60405180910390f35b610218600480360381019061021391906113c0565b610d45565b604051610225919061177b565b60405180910390f35b610248600480360381019061024391906113c0565b610de5565b604051610255919061177b565b60405180910390f35b610278600480360381019061027391906112db565b610e8a565b604051610285919061179d565b60405180910390f35b60606003805480602002602001604051908101604052809291908181526020016000905b8282101561044057838290600052602060002090600602016040518060c00160405290816000820160009054906101000a900473ffffffffffffffffffffffffffffffffffffffff1673ffffffffffffffffffffffffffffffffffffffff1673ffffffffffffffffffffffffffffffffffffffff1681526020016001820160009054906101000a900473ffffffffffffffffffffffffffffffffffffffff1673ffffffffffffffffffffffffffffffffffffffff1673ffffffffffffffffffffffffffffffffffffffff1681526020016002820154815260200160038201548152602001600482015481526020016005820180546103af906119d9565b80601f01602080910402602001604051908101604052809291908181526020018280546103db906119d9565b80156104285780601f106103fd57610100808354040283529160200191610428565b820191906000526020600020905b81548152906001019060200180831161040b57829003601f168201915b505050505081525050815260200190600101906102b2565b50505050905090565b600460205282600052604060002082805160208101820180518482526020830160208501208183528095505050505050818154811061048757600080fd5b906000526020600020906006020160009250925050508060000160009054906101000a900473ffffffffffffffffffffffffffffffffffffffff16908060010160009054906101000a900473ffffffffffffffffffffffffffffffffffffffff169080600201549080600301549080600401549080600501805461050a906119d9565b80601f0160208091040260200160405190810160405280929190818152602001828054610536906119d9565b80156105835780601f1061055857610100808354040283529160200191610583565b820191906000526020600020905b81548152906001019060200180831161056657829003601f168201915b5050505050905086565b606060046000848152602001908152602001600020826040516105b091906116a4565b9081526020016040518091039020805480602002602001604051908101604052809291908181526020016000905b8282101561076c57838290600052602060002090600602016040518060c00160405290816000820160009054906101000a900473ffffffffffffffffffffffffffffffffffffffff1673ffffffffffffffffffffffffffffffffffffffff1673ffffffffffffffffffffffffffffffffffffffff1681526020016001820160009054906101000a900473ffffffffffffffffffffffffffffffffffffffff1673ffffffffffffffffffffffffffffffffffffffff1673ffffffffffffffffffffffffffffffffffffffff1681526020016002820154815260200160038201548152602001600482015481526020016005820180546106db906119d9565b80601f0160208091040260200160405190810160405280929190818152602001828054610707906119d9565b80156107545780601f1061072957610100808354040283529160200191610754565b820191906000526020600020905b81548152906001019060200180831161073757829003601f168201915b505050505081525050815260200190600101906105de565b50505050905092915050565b6000600154905090565b806006600084815260200190815260200160002090805190602001906107a9929190610ed3565b505050565b60008060009054906101000a900473ffffffffffffffffffffffffffffffffffffffff16905090565b600083600260008060009054906101000a900473ffffffffffffffffffffffffffffffffffffffff1673ffffffffffffffffffffffffffffffffffffffff1673ffffffffffffffffffffffffffffffffffffffff16815260200190815260200160002054101561084a5760009050610cec565b83600260008060009054906101000a900473ffffffffffffffffffffffffffffffffffffffff1673ffffffffffffffffffffffffffffffffffffffff1673ffffffffffffffffffffffffffffffffffffffff16815260200190815260200160002060008282546108ba9190611909565b9250508190555083600260008773ffffffffffffffffffffffffffffffffffffffff1673ffffffffffffffffffffffffffffffffffffffff168152602001908152602001600020600082825461091091906118b3565b92505081905550600180600082825461092991906118b3565b9250508190555060036040518060c0016040528060008054906101000a900473ffffffffffffffffffffffffffffffffffffffff1673ffffffffffffffffffffffffffffffffffffffff1681526020018773ffffffffffffffffffffffffffffffffffffffff16815260200186815260200142815260200185815260200184815250908060018154018082558091505060019003906000526020600020906006020160009091909190915060008201518160000160006101000a81548173ffffffffffffffffffffffffffffffffffffffff021916908373ffffffffffffffffffffffffffffffffffffffff16021790555060208201518160010160006101000a81548173ffffffffffffffffffffffffffffffffffffffff021916908373ffffffffffffffffffffffffffffffffffffffff16021790555060408201518160020155606082015181600301556080820151816004015560a0820151816005019080519060200190610a9c929190610ed3565b50505060006004600085815260200190815260200160002083604051610ac291906116a4565b90815260200160405180910390209050806040518060c0016040528060008054906101000a900473ffffffffffffffffffffffffffffffffffffffff1673ffffffffffffffffffffffffffffffffffffffff1681526020018873ffffffffffffffffffffffffffffffffffffffff16815260200187815260200142815260200186815260200185815250908060018154018082558091505060019003906000526020600020906006020160009091909190915060008201518160000160006101000a81548173ffffffffffffffffffffffffffffffffffffffff021916908373ffffffffffffffffffffffffffffffffffffffff16021790555060208201518160010160006101000a81548173ffffffffffffffffffffffffffffffffffffffff021916908373ffffffffffffffffffffffffffffffffffffffff16021790555060408201518160020155606082015181600301556080820151816004015560a0820151816005019080519060200190610c3d929190610ed3565b505050806004600086815260200190815260200160002084604051610c6291906116a4565b9081526020016040518091039020908054610c7e929190610f59565b508573ffffffffffffffffffffffffffffffffffffffff163373ffffffffffffffffffffffffffffffffffffffff167f9ed053bb818ff08b8353cd46f78db1f0799f31c9e4458fdb425c10eccd2efc448742604051610cde9291906117b8565b60405180910390a360019150505b949350505050565b600060056000815480929190610d0990611a0b565b91905055905081600660008381526020019081526020016000209080519060200190610d36929190610ed3565b505050565b6000600154905090565b60066020528060005260406000206000915090508054610d64906119d9565b80601f0160208091040260200160405190810160405280929190818152602001828054610d90906119d9565b8015610ddd5780601f10610db257610100808354040283529160200191610ddd565b820191906000526020600020905b815481529060010190602001808311610dc057829003601f168201915b505050505081565b6060600660008381526020019081526020016000208054610e05906119d9565b80601f0160208091040260200160405190810160405280929190818152602001828054610e31906119d9565b8015610e7e5780601f10610e5357610100808354040283529160200191610e7e565b820191906000526020600020905b815481529060010190602001808311610e6157829003601f168201915b50505050509050919050565b6000600260008373ffffffffffffffffffffffffffffffffffffffff1673ffffffffffffffffffffffffffffffffffffffff168152602001908152602001600020549050919050565b828054610edf906119d9565b90600052602060002090601f016020900481019282610f015760008555610f48565b82601f10610f1a57805160ff1916838001178555610f48565b82800160010185558215610f48579182015b82811115610f47578251825591602001919060010190610f2c565b5b509050610f5591906110bd565b5090565b8280548282559060005260206000209060060281019282156110ac5760005260206000209160060282015b828111156110ab5782826000820160009054906101000a900473ffffffffffffffffffffffffffffffffffffffff168160000160006101000a81548173ffffffffffffffffffffffffffffffffffffffff021916908373ffffffffffffffffffffffffffffffffffffffff1602179055506001820160009054906101000a900473ffffffffffffffffffffffffffffffffffffffff168160010160006101000a81548173ffffffffffffffffffffffffffffffffffffffff021916908373ffffffffffffffffffffffffffffffffffffffff160217905550600282015481600201556003820154816003015560048201548160040155600582018160050190805461108e906119d9565b6110999291906110da565b50505091600601919060060190610f84565b5b5090506110b99190611167565b5090565b5b808211156110d65760008160009055506001016110be565b5090565b8280546110e6906119d9565b90600052602060002090601f0160209004810192826111085760008555611156565b82601f106111195780548555611156565b8280016001018555821561115657600052602060002091601f016020900482015b8281111561115557825482559160010191906001019061113a565b5b50905061116391906110bd565b5090565b5b808211156111f057600080820160006101000a81549073ffffffffffffffffffffffffffffffffffffffff02191690556001820160006101000a81549073ffffffffffffffffffffffffffffffffffffffff02191690556002820160009055600382016000905560048201600090556005820160006111e791906111f4565b50600601611168565b5090565b508054611200906119d9565b6000825580601f106112125750611231565b601f01602090049060005260206000209081019061123091906110bd565b5b50565b600061124761124284611812565b6117e1565b90508281526020810184848401111561125f57600080fd5b61126a848285611997565b509392505050565b60008135905061128181611af2565b92915050565b60008135905061129681611b09565b92915050565b600082601f8301126112ad57600080fd5b81356112bd848260208601611234565b91505092915050565b6000813590506112d581611b20565b92915050565b6000602082840312156112ed57600080fd5b60006112fb84828501611272565b91505092915050565b6000806000806080858703121561131a57600080fd5b600061132887828801611287565b9450506020611339878288016112c6565b935050604061134a878288016112c6565b925050606085013567ffffffffffffffff81111561136757600080fd5b6113738782880161129c565b91505092959194509250565b60006020828403121561139157600080fd5b600082013567ffffffffffffffff8111156113ab57600080fd5b6113b78482850161129c565b91505092915050565b6000602082840312156113d257600080fd5b60006113e0848285016112c6565b91505092915050565b600080604083850312156113fc57600080fd5b600061140a858286016112c6565b925050602083013567ffffffffffffffff81111561142757600080fd5b6114338582860161129c565b9150509250929050565b60008060006060848603121561145257600080fd5b6000611460868287016112c6565b935050602084013567ffffffffffffffff81111561147d57600080fd5b6114898682870161129c565b925050604061149a868287016112c6565b9150509250925092565b60006114b083836115fd565b905092915050565b6114c18161193d565b82525050565b6114d08161193d565b82525050565b60006114e182611852565b6114eb8185611875565b9350836020820285016114fd85611842565b8060005b85811015611539578484038952815161151a85826114a4565b945061152583611868565b925060208a01995050600181019050611501565b50829750879550505050505092915050565b61155481611961565b82525050565b60006115658261185d565b61156f8185611886565b935061157f8185602086016119a6565b61158881611ae1565b840191505092915050565b600061159e8261185d565b6115a88185611897565b93506115b88185602086016119a6565b6115c181611ae1565b840191505092915050565b60006115d78261185d565b6115e181856118a8565b93506115f18185602086016119a6565b80840191505092915050565b600060c08301600083015161161560008601826114b8565b50602083015161162860208601826114b8565b50604083015161163b6040860182611686565b50606083015161164e6060860182611686565b5060808301516116616080860182611686565b5060a083015184820360a0860152611679828261155a565b9150508091505092915050565b61168f8161198d565b82525050565b61169e8161198d565b82525050565b60006116b082846115cc565b915081905092915050565b60006020820190506116d060008301846114c7565b92915050565b600060c0820190506116eb60008301896114c7565b6116f860208301886114c7565b6117056040830187611695565b6117126060830186611695565b61171f6080830185611695565b81810360a08301526117318184611593565b9050979650505050505050565b6000602082019050818103600083015261175881846114d6565b905092915050565b6000602082019050611775600083018461154b565b92915050565b600060208201905081810360008301526117958184611593565b905092915050565b60006020820190506117b26000830184611695565b92915050565b60006040820190506117cd6000830185611695565b6117da6020830184611695565b9392505050565b6000604051905081810181811067ffffffffffffffff8211171561180857611807611ab2565b5b8060405250919050565b600067ffffffffffffffff82111561182d5761182c611ab2565b5b601f19601f8301169050602081019050919050565b6000819050602082019050919050565b600081519050919050565b600081519050919050565b6000602082019050919050565b600082825260208201905092915050565b600082825260208201905092915050565b600082825260208201905092915050565b600081905092915050565b60006118be8261198d565b91506118c98361198d565b9250827fffffffffffffffffffffffffffffffffffffffffffffffffffffffffffffffff038211156118fe576118fd611a54565b5b828201905092915050565b60006119148261198d565b915061191f8361198d565b92508282101561193257611931611a54565b5b828203905092915050565b60006119488261196d565b9050919050565b600061195a8261196d565b9050919050565b60008115159050919050565b600073ffffffffffffffffffffffffffffffffffffffff82169050919050565b6000819050919050565b82818337600083830152505050565b60005b838110156119c45780820151818401526020810190506119a9565b838111156119d3576000848401525b50505050565b600060028204905060018216806119f157607f821691505b60208210811415611a0557611a04611a83565b5b50919050565b6000611a168261198d565b91507fffffffffffffffffffffffffffffffffffffffffffffffffffffffffffffffff821415611a4957611a48611a54565b5b600182019050919050565b7f4e487b7100000000000000000000000000000000000000000000000000000000600052601160045260246000fd5b7f4e487b7100000000000000000000000000000000000000000000000000000000600052602260045260246000fd5b7f4e487b7100000000000000000000000000000000000000000000000000000000600052604160045260246000fd5b6000601f19601f8301169050919050565b611afb8161193d565b8114611b0657600080fd5b50565b611b128161194f565b8114611b1d57600080fd5b50565b611b298161198d565b8114611b3457600080fd5b5056fea26469706673582212200dc720bf43a2b21674df5e94c0d554986f88be01103e04e18820291ddd60e4aa64736f6c63430008000033",
  "linkReferences": {},
  "deployedLinkReferences": {}
}